S00D00004F4C4544312E73726563C2
S21440000008274020ED0C4000E90C4000E90C400079
S214400010E90C4000E90C4000E90C400000000000FC
S214400020000000000000000000000000E90C400056
S214400030E90C400000000000E90C4000E90C4000DC
S214400040E90C4000E90C4000E90C4000E90C400097
S214400050E90C4000E90C4000E90C4000E90C400087
S214400060E90C400000000000110B4000250B40004A
S214400070390B4000E90C4000E90C4000E90C400018
S2144000804D0B4000610B4000E90C4000E90C40007D
S214400090E90C4000E90C4000E90C40009511400096
S2144000A0BD114000E5114000E90C4000E90C40005D
S2144000B0E90C4000E90C4000E90C4000E90C400027
S2144000C0E90C4000E90C4000E90C4000E90C400017
S2144000D000000000E90C400000000000E90C400071
S2144000E0E90C4000E90C4000E90C4000E90C4000F7
S2144000F0E90C4000E90C4000E90C4000E90C4000E7
S214400100E90C4000E90C4000E90C4000E90C4000D6
S214400110E90C400000000000000000000000000065
S214400120E90C4000E90C4000E90C4000E90C4000B6
S214400130E90C400000000000E90C4000E90C4000DB
S21440014010B5054C237833B9044B13B10448AFF3CC
S21440015000800123237010BD3C04402000000000B6
S214400160B41440000C4B43B10C480D4910B5AFF3E6
S21440017000800C48036823B910BD0A48036833B9A9
S2144001807047094B002BF7D0BDE810401847064B88
S214400190002BF5D0184700BF00000000B414400004
S2144001A040044020B41440000000000008B5074B4F
S2144001B0984203D0064B984204D008BD1520054B04
S2144001C0984708BD2A20034B9847F6E70080004032
S2144001D000800540950C4000436823F4702343603C
S2144001E04368090401F4702119434160704730B4F4
S2144001F043F69924056915F0020F03D1013CF9D165
S21440020001200CE0446814F0020F06D0120402F4F9
S214400210702211430BB141F08071C160002030BCA8
S214400220704732B900EB8100036B23F00103036390
S214400230704700EB8100036B43F001030363704794
S21440024032B900EB8100036B23F00203036370476F
S21440025000EB8100036B43F0020303637047042AFC
S21440026003D06AB1082A16D0704700EB8100036BB2
S21440027023F008030363036B43F0040303637047F0
S21440028000EB8100036B23F008030363036B23F04A
S21440029004030363704700EB8100036B43F00803DD
S2144002A00363E1E700EB81010B6B23F0F0030B6384
S2144002B00B6B1A430A637047431E1944B1FBF0F0B8
S2144002C0431EFE2B94BF00B24FF0FF3070477AB10A
S2144002D010B4144600EB81010B6B23F47F430B6391
S2144002E00A6B42EA04220A6300205DF8044B70471A
S2144002F04FF0FF30704710B4890143180224445031
S2144003004FF0FF319962196A5A605DF8044B7047A6
S214400310890105234350704700EB8111CA6170473D
S21440032000EB81114A62704700EB8111086A704702
S214400330F0B486B002240194082402942024039446
S214400340802404940A9CE40B0594B0EB510F14D817
S2144003504C0CA04217D2012501AF57F82540B1FBFF
S214400360F4F4260C84420AD386420DD90135052D75
S214400370F3D1002006B0F0BC70470020FAE700201A
S214400380F8E70120F6E700252AB106A901EB85012A
S21440039051F8141C1160002BF3D01D600120E9E7D2
S2144003A0014B1860704700BF58044020024B1B6842
S2144003B003EBC0104254704758044020024B1B6861
S2144003C003EBC010405C70475804402070B50446AC
S2144003D00D4616461BB90D4B9847B04215D03246CF
S2144003E0294620460A4B984704F00F0040F0B000DC
S2144003F0084CA047C5F3021040F01000A04705F097
S2144004000F00A0473046044B984770BDBD034000E0
S214400410AD0340006D0440008D0640002DE9F041DC
S2144004200D480E4B98470E4B984740200D4B98472B
S21440043000254FF001082F460B4E002443463A460F
S214400440E1B22846B0470134802CF7D10135EDB2F1
S214400450042DF2D1BDE8F0815C044020A1034000A9
S214400460AD0440006D044000CD03400038B505465D
S2144004700822094B5A63094C01212046084B9847ED
S21440048001231A4629462046064CA0474FF4FD70E5
S214400490054B984738BD00BF00100E400080004016
S2144004A0D9014000EF014000010040202DE9F8430B
S2144004B0664D4FF400362E61C5F8A060644B0827A1
S2144004C01F61C3F8A0706E66C5F890606E656E6278
S2144004D0C5F880602A6F22F400322A676A6F22F4D9
S2144004E000326A675F66C3F890705F655F62C3F804
S2144004F080701A6F22F008021A675A6F22F00802BC
S2144005005A671F602E601F632E63DFF87C810023CE
S2144005104FF480024FF0805140464E4CA047002397
S2144005204FF400124FF080514046A04700234FF052
S21440053000724FF080514046A04700234FF480029F
S2144005404FF080514046A04700234FF400124FF032
S21440055080514046A04700234FF000724FF0805134
S2144005604046A0473C4C4FF00209C4F800904FF07C
S2144005708008C4F80080636843F0010363603A462D
S21440058001212046354B9847002201212046344B16
S2144005909847002201212046324B9847636823F053
S2144005A0020363600022012120462F4B9847636870
S2144005B023F080036360636843F0100363602B4955
S2144005C02B482C4B9847C2B2012120462A4B9847CD
S2144005D020462A4B9847012323606E6340F6B83086
S2144005E0274CA0472E6340F6B830A0472E63A8207D
S2144005F0244CA0471F20A047D320A0470020A04758
S2144006004020A047A120A047C820A047DA20A04706
S2144006104846A0478120A0478F20A047A420A04757
S214400620A620A047D520A0474046A0478D20A047FB
S2144006301420A047DB20A0474020A047D920A04751
S214400640F120A047AF20A047BDE8F88300120E4037
S21440065000100E4075094000008000405F024000D8
S2144006602302400041024000A502400080D1F0082D
S21440067040420F00B9024000CF024000AD014000AA
S214400680010040206D04400000140E4038B5054679
S2144006900822094B1A63094C01212046084B98470B
S2144006A001231A4629462046064CA0474FF4FD70C3
S2144006B0054B984738BD00BF00100E4000800040F4
S2144006C0D9014000EF0140000100402010B510481D
S2144006D0104B98473E2100200F4B98470F4CA047A1
S2144006E00028FCD00E4B98470E4A0F4B9A620F4C90
S2144006F0A0470028FCD002200D4B984700200D4B09
S21440070098470D4B98470248024B984710BD00BF8C
S21440071000A3E111C10E4000110C4000650C4000E2
S214400720750C4000013F182000060E40850C400026
S214400730750B4000AD0B4000B50D4000F8B54FF4CA
S2144007400042484B5A60BFF34F8FBFF36F8F464B04
S2144007500022C3F850225A6942F400325A61BFF36D
S2144007604F8FBFF36F8FD3F88070C7F34E3607F0C6
S21440077007000430C7F3C907B7FA87FE0EF01F0E0E
S214400780BFF34F8F4FF0FF3404FA00FC06FA00F038
S21440079004FA0EF407FA0EFE1D463A46734640EA41
S2144007A00301C5F86012013A2344B2F1FF3FF6D187
S2144007B0013E6044B6F1FF3FEFD1BFF34F8F2A4B67
S2144007C05A6942F480325A61BFF34F8FBFF36F8F3E
S2144007D0264A27495160A1F580715160BFF34F8F7B
S2144007E0BFF36F8FD3F8902222F00102C3F8902215
S2144007F0D3F8942222F00102C3F89422BFF34F8F1D
S214400800BFF36F8F0A201B4CA0470B20A0470C203D
S214400810A0471020A0471120A047174B4FF48072E6
S2144008201A61C3F8A0201A63A3F580634FF40062F0
S2144008305A61C3F8A0205A66C3F890205A651A62D7
S214400840C3F88420196F21F400611967596F21F4A9
S21440085000615967C3F8C020C3F8D420C3F8B0205D
S214400860F8BD00BF50180E4000ED00E0000C0E40F2
S2144008700C08005A950C400000120E400163704769
S214400880416370474264B1F1C05F3AD013D8B1F1CA
S214400890006F25D0B1F1805F0AD1036F1343036721
S2144008A0436F416F0B4023EA020343674260704741
S2144008B00029FBD17047B1F1205F21D009D8B1F1B2
S2144008C0005FF3D1036F13430367436F13434367DC
S2144008D0ECE7B1F1405F13D0B1F1605F10D0E5E7CF
S2144008E010B4016F046FD34321401C461940016782
S2144008F0436F416F0B402340436742605DF8044BB3
S2144009007047036F016F0B4023EA02030367436F90
S21440091013434367CAE7416412F0010F0DD10166E5
S21440092012F00A0F0BD0016212F0020F09D112F03A
S214400930080F08D0C0F8841005E04166F0E7416231
S214400940F2E7C0F8801041610160704710B4019C26
S21440095041644CB901664BB101654AB941630161D6
S21440096001605DF8044B70474166F4E74165F4E783
S2144009700163F4E770B582B0054616461C46B1F1F1
S214400980005F14D00AD9B1F1405F24D0B1F1605F66
S21440099021D0B1F1205F17D000201AE0B1F1805F7E
S2144009A005D0B1F1C05F02D0B1F1006FF4D132464C
S2144009B02846114B984714F0010F02D12E660120AD
S2144009C007E06E66012004E01A4631460B4B984716
S2144009D0012002B070BD04F001030093C4F380030D
S2144009E0B1F1605F14BF0022012231462846044C14
S2144009F0A0470120EDE700BF8508400017094000EA
S214400A004D094000836B0B4214BF01200020704705
S214400A1012F0100F12D0C0F8B01012F0200F07D00E
S214400A20C0F8D41012F0400F05D0C0F8C010704780
S214400A30C0F8D010F6E7C0F8C4107047C0F8B4103D
S214400A40704701647047C06C7047806C7047000008
S214400A502DE9F041044688460E4B98470546204609
S214400A600D4B9847054013D00C4C04F1600603E04C
S214400A70B4420DD010345DB120684045F8D161686D
S214400A802942F5D0E3689847636825EA0305EFE70F
S214400A90BDE8F081470A40004B0A40005C06402013
S214400AA0F8B5184C2668062E2AD84FF0000C644637
S214400AB0154F04E00134E4B2A446A64209D3A64644
S214400AC025017D598D42F5D107EB04156D68954299
S214400AD0F0D10D4D4FEA0E1E05EB0E0445F80E10F4
S214400AE06260A3600699E1600136664505D011460E
S214400AF01A46064B98470020F8BD02490E60F6E7B6
S214400B000120F8BDCC0640205C064020110A40007B
S214400B1008B50A210148024B984708BD000E0E4012
S214400B20510A400008B50B210148024B984708BDC2
S214400B3000100E40510A400008B50C210148024BF7
S214400B40984708BD00120E40510A400008B51021D3
S214400B500148024B984708BD00140E40510A400019
S214400B6008B511210148024B984708BD00160E40B3
S214400B70510A4000032811D0042812D002280CBF86
S214400B804FF480710021084A136B23F440730B43E3
S214400B901363936E13F0080FFBD070474FF4407109
S214400BA0F1E74FF40071EEE700060E40174A136B6C
S214400BB023F0700318431063936E13F0080F0AD1A6
S214400BC04FF4805311498A6E12F0080F03D1013B4F
S214400BD0F9D1012070470D4A136B23F0030343F00D
S214400BE002031363936E13F0080F0AD14FF4805339
S214400BF006498A6E12F0080F05D1013BF9D1012053
S214400C007047002070470020704700BF00060E4027
S214400C10A0B90E48036A090289B20D4A1A400D4B24
S214400C201343194301620246936E13F0010FFBD043
S214400C30064A116A084B0B431362704703490B6A16
S214400C40064A1A40064B13430B62704700060E4096
S214400C50FCFFC8FF0100370000003701FCFFC8FE5C
S214400C6002003701024B986E00F48030704700BF98
S214400C7000060E404FF00052014B9A62704700BF8C
S214400C8000060E40024B986E00F00200704700BF10
S214400C9000060E403F281ED81F280CD8114B9A69D4
S214400CA001238340934318D0012303FA00F00D4BF1
S214400CB018610020704720380A4BD3F808210123DA
S214400CC0834093430BD0012303FA00F0054BC3F84F
S214400CD00001002070470120704700207047002028
S214400CE0704700BF00060E40FEE7000000B583B028
S214400CF0254B264A9A4210D0254B234A9A420CD27C
S214400D00013B9B1A23F00303043313441F4951F855
S214400D10040B42F8040B9A42F9D11E4B1E4A9A42E3
S214400D200AD2013B9B1A23F00303043313440021E9
S214400D3042F8041B9342FBD1184A194B23F07F0319
S214400D409360EFF31083B3FA83F35B09019372B6B3
S214400D50BFF35F8F0022134B1A700199124A136833
S214400D6043F470031360BFF34F8FBFF36F8F29B107
S214400D7001220C4B1A70BFF35F8F62B60B4B98473D
S214400D800B4B9847FEE700BF00004020B4144000DD
S214400D903C044020040740203C04402000ED00E096
S214400DA0000040000A00402088ED00E01D1340008F
S214400DB00D1240003B4B1B6B03F00303012B1DD071
S214400DC083B1022B36D0374B1B6B03F07003702B6E
S214400DD05FD0344B1A6B3449C2F302120B68D340CF
S214400DE00B607047314B5B6913F0800F14BF4FF4B4
S214400DF000424FF4FA422C4B1A60E4E7294B1B6A38
S214400E0013F0807F03D02A4A274B1A60DBE7294A33
S214400E10254B1A60234B1B6A03F07003102B05D03A
S214400E20202BD0D1224A204B1A60CCE7224A1E4BB8
S214400E301A60C8E71B4B1B6A13F0807F16D01C4A0B
S214400E40194B1A60174B1B6B03F00303022BBAD1E6
S214400E50144A916A926A1448C1F30A41036801FB36
S214400E600333D2B2B3FBF2F30360ACE7114A0E4B46
S214400E701A600C4B1B6A03F07003102B05D0202B16
S214400E80E0D10B4A084B1A60DCE70B4A064B1A6067
S214400E90D8E7054A13680949A1FB03135B081360AA
S214400EA0704700BF00060E400C00402010180E4051
S214400EB0001BB70000093D0000127A00ABAAAAAAA0
S214400EC0164B984213D9164B984215D9154B984253
S214400ED016D9154B984217D9144B984218D9144B2B
S214400EE0984294BF134A144A144B1A6070474FF006
S214400EF08062124B1A607047114A104B1A60704756
S214400F00104A0E4B1A6070470F4A0C4B1A607047D7
S214400F104FF00422094B1A60704700BFBFF35E01D2
S214400F207FE7BD023FDB1C04FFCE7B05BFC2DA066F
S214400F307FB639080005000400060004000C0E4089
S214400F400001000400020004000300040122014BDB
S214400F501A607047D00640200122014B1A60704745
S214400F60D40640200122014B1A607047D806402024
S214400F702DE9F04F83B00C20484DA847484E00233B
S214400F804FF480724FF040513046464CA0474FF4E5
S214400F9080713046DFF82891C8470A20A847DFF816
S214400FA02481002301224FF040514046A0470121B2
S214400FB040463D4FB8470C20A84700234FF080429C
S214400FC04FF040513046A0474FF080413046C8472A
S214400FD00B20A847DFF8F090002304224FF0405142
S214400FE04846A04704214846B8471020A8472F4FF8
S214400FF001234FF080524FF020513846A0472C4BEB
S214401000009370234FF0805210213846DFF8BCB072
S214401010D8474FF080513846DFF8B4A0D047254F28
S2144010204FF480333B604FF0800987F810930C20D4
S214401030A84701234FF000424FF020513046A047CA
S2144010401D4B009350234FF000420C213046D847AA
S2144010504FF000413046D0474FF480533B6087F80E
S2144010600C930A20A84701234FF400224FF020514A
S2144010704046A047114B009370234FF400220A21AC
S2144010804046D8474FF400214046D0474FF480634F
S2144010903B6087F80A9303B0BDE8F08F950C40009C
S2144010A000120E40750940008108400000140E40B2
S2144010B04D0F400000E100E0590F4000650F400032
S2144010C07D084000000E0E4000100E40A10A400071
S2144010D0430A400038B504460D46064B984720B9AB
S2144010E029462046044B984738BD29462046034BA0
S2144010F0984738BD050A40007D08400081084000FA
S2144011002DE9F04385B006460C46174698460846F5
S214401110184B9847184D009502AB03AA29464046FF
S214401120DFF86C90C847029A42F48042394630460F
S214401130124B9847039AB5FBF2F2B2FBF8F23946E7
S21440114030460F4B984763B25B0904F01F040122F8
S21440115002FA04F40B4A42F823401022394630463D
S214401160094B984739463046084B984705B0BDE886
S214401170F08300BF950C400000A3E111F702400049
S2144011801903400000E100E0210340001103400045
S2144011903103400000B583B000210548054B984711
S2144011A00190019B0122044B1A7003B05DF804FBCA
S2144011B000C0004029034000DC06402000B583B054
S2144011C001210548054B98470190019B0122044B9D
S2144011D01A7003B05DF804FB00C0004029034000CD
S2144011E0DD06402000B583B002210548054B9847F0
S2144011F00190019B0122044B1A7003B05DF804FB7A
S21440120000C0004029034000DE0640202DE9F84398
S214401210324B9847324B9847324B9847324B984719
S214401220324D0523002217212846314CA0470A2379
S214401230012218212846A0470123022219212846C8
S214401240A0472C4B1B780024254626462A4FDFF81D
S214401250C490DFF8C4802CE001214046274B9847D5
S2144012600022244B1A7024E04FF080414846234B1E
S214401270984700233B7021E0214B1B6823B186F042
S214401280010600221E4B1A601E4B1B6823B185F0D8
S214401290010500221B4B1A601B4B1B6823B184F0D0
S2144012A001040022184B1A60124B1B780BB1002E1B
S2144012B0D2D13B78DBB20DB1002BD5D1134B1B7886
S2144012C0DBB2002CD8D0002BD6D0042110480B4BD4
S2144012D0984700220D4B1A70CEE700BF3D074000EE
S2144012E0CD0640001D044000710F400000C0004085
S2144012F001114000DC064020DD064020D5104000AD
S214401300D0064020D4064020D8064020DE064020A6
S21440131000100E4000120E40000E0E4070B50F4EEC
S2144013200F4D761BB61018BF002405D0013455F873
S214401330043B9847A642F9D10A4E0B4D761B00F067
S214401340A7F8B61018BF002406D0013455F8043B61
S2144013509847A642F9D170BD70BD00BF9C144000AE
S2144013609C144000A41440009C144000024B13B14F
S214401370024800F005B87047000000008D1340009A
S214401380002301461A46184600F01EB838B50A4CE7
S2144013900A4D641BA4100AD004F18043013B05EBC0
S2144013A08305013C55F804399847002CF9D1BDE82F
S2144013B0384000F077B800BFB4144000B014400086
S2144013C0704700BF704700BF2DE9F8432C4D0646D6
S2144013D0286898460F469146FFF7F2FF294B1C684F
S2144013E0D4F84831002B3ED05A681F2A1CDC02F144
S2144013F0010E76B103EB82010124C1F88890D3F840
S214401400880194402043022EC3F88801C1F8088121
S21440141023D00232C3F804E0286843F82270FFF76E
S214401420D1FF0020BDE8F883174B0BB34FF4C870CC
S214401430AFF300800346D8B1D4F8482102600021BB
S21440144041600A46C4F848014FF0010EC0F88811C2
S214401450C0F88C11002EDCD0CCE7D3F88C110C43AE
S214401460C3F88C41D5E704F5A673C4F84831BBE70A
S2144014702868FFF7A7FF4FF0FF30BDE8F88300BFAE
S214401480380440208C14400000000000100040202B
S214401490F8B500BFF8BC08BC9E4670476D134000C8
S2144014A065014000F8B500BFF8BC08BC9E467047D2
S2084014B04101400071
S2144014B4BFF35F8F0138FBD17047010000093D0040
S2144014C400000000FC02402064034020CC0340207F
S2144014D400000000000000000000000000000000C3
S2144014E400000000000000000000000000000000B3
S2144014F400000000000000000000000000000000A3
S2144015040000000000000000000000000000000092
S2144015140000000000000000000000000000000082
S2144015240000000000000000000000000000000072
S2144015340000000000000000000000000000000062
S2144015440000000000000000000000000000000052
S2144015540000000000000000000000000000000042
S2144015640000000000000000010000000000000031
S2144015740E33CDAB34126DE6ECDE05000B000000F6
S2144015840000000000000000000000000000000012
S2144015940000000000000000000000000000000002
S2144015A400000000000000000000000000000000F2
S2144015B400000000000000000000000000000000E2
S2104018E40000000000000000E00640206D
S804400CEDC2
